:100000000C9434000C9449000C9449000C94490061
:100010000C9449000C9449000C9449000C9449003C
:100020000C9449000C9449000C9449000C9449002C
:100030000C9449000C9449000C9449000C9449001C
:100040000C9449000C9449000C9449000C9449000C
:100050000C9449000C9449000C9449000C944900FC
:100060000C9449000C94490011241FBECFEFD8E036
:10007000DEBFCDBF11E0A0E0B1E0EAEBF8E102C0E5
:1000800005900D92A830B107D9F70E9499090C94F8
:100090005B0C0C940000EF92FF920F931F937B0177
:1000A0008C0120E030E040E05FE40E944B038823B5
:1000B0008CF0C801B70120E030E040E05FE40E942E
:1000C000C3010E94AB039B01AC0120503040404073
:1000D000504806C0C801B7010E94AB039B01AC01A8
:1000E000B901CA011F910F91FF90EF900895A0E010
:1000F000B0E0EDE7F0E00C94240CDC012B01FA01F8
:100100009C91923008F439C1EB018881823008F467
:1001100033C1943069F4843009F02FC111969C9159
:1001200011978981981709F428C1A0E0B1E025C191
:10013000843009F421C18230A9F4923009F01DC144
:100140009A01AD0188E0EA010990AE01E901099246
:100150009E018150C1F7E201898111969C9189230A
:10016000818308C1923009F407C112962D903C900A
:100170001397EB018A819B811496AD90BD90CD9031
:10018000DC901797EC80FD800E811F819101281B68
:10019000390BB90137FF04C066277727621B730B41
:1001A000603271050CF061C0121613066CF5370150
:1001B0004801062E04C096948794779467940A9415
:1001C000D2F721E030E040E050E004C0220F331FBE
:1001D000441F551F6A95D2F721503040404050408F
:1001E0002E213F2140235123211531054105510581
:1001F00021F021E030E040E050E079018A01E6287A
:10020000F728082919293CC0232BD1F1260E371EC7
:1002100035014601062E04C096948794779467941E
:100220000A94D2F721E030E040E050E004C0220F11
:10023000331F441F551F6A95D2F72150304040406C
:1002400050402A213B214C215D21211531054105DA
:10025000510521F021E030E040E050E059016A0111
:10026000A628B728C828D9280BC0821593052CF0DA
:100270001C01AA24BB24650103C0EE24FF248701CE
:1002800011969C91D20111968C91981709F445C052
:10029000992339F0A80197012A193B094C095D09F6
:1002A00006C0A60195012E193F09400B510B57FDC1
:1002B00008C0118233822282248335834683578388
:1002C0001DC081E081833382228288279927DC0147
:1002D000821B930BA40BB50B84839583A683B783F2
:1002E0000DC0220F331F441F551F248335834683BF
:1002F00057838281938101979383828324813581FF
:1003000046815781DA01C9010197A109B1098F5FBF
:100310009F4FAF4FBF4328F30BC09183338222829C
:10032000EA0CFB1C0C1D1D1DE482F582068317835D
:1003300083E08083248135814681578157FF1AC02D
:10034000C901AA2797FDA095BA2F81709070A0705F
:10035000B0705695479537952795822B932BA42BF4
:10036000B52B84839583A683B7838281938101967D
:1003700093838283DF0101C0D201CD01CDB7DEB707
:10038000E2E10C94400CA0E2B0E0E9ECF1E00C9466
:10039000300C69837A838B839C832D833E834F83C8
:1003A0005887E9E0EE2EF12CEC0EFD1ECE010196F1
:1003B000B7010E94D4048E010F5E1F4FCE01059637
:1003C000B8010E94D4048A8991E089278A8BC701E9
:1003D000B801AE01475E5F4F0E9477000E94FF03A5
:1003E000A096E6E00C944C0CA0E2B0E0EAEFF1E05D
:1003F0000C94300C69837A838B839C832D833E839A
:100400004F835887F9E0EF2EF12CEC0EFD1ECE0144
:100410000196B7010E94D4048E010F5E1F4FCE01DA
:100420000596B8010E94D404C701B801AE01475E29
:100430005F4F0E9477000E94FF03A096E6E00C94B5
:100440004C0CA0E2B0E0E7E2F2E00C94240C6983EB
:100450007A838B839C832D833E834F835887CE0181
:100460000196BE01675F7F4F0E94D404CE010596BE
:10047000BE016F5E7F4F0E94D4049985923088F050
:1004800089898230C8F0943019F4823051F404C064
:10049000843029F4923081F480E091E0C6C092303B
:1004A00049F420E09A858A89981321E02A87CE01B1
:1004B0000996BBC0823049F420E09A858A89981356
:1004C00021E02A8BCE014196B0C02D843E844F841A
:1004D00058886D887E888F88988CEE24FF24870149
:1004E000AA24BB24650140E050E060E070E0E0E059
:1004F000F0E0C10181709070892BE9F0E60CF71CE7
:10050000081D191D9A01AB012A0D3B1D4C1D5D1DD7
:1005100080E090E0A0E0B0E0E614F70408051905DB
:1005200020F481E090E0A0E0B0E0BA01A901480F1A
:10053000591F6A1F7B1FAA0CBB1CCC1CDD1C97FE1D
:1005400008C081E090E0A0E0B0E0A82AB92ACA2A59
:10055000DB2A3196E032F10549F0660C771C881CE5
:10056000991C5694479437942794C3CFFA85EA8907
:100570002B893C898B859C85280F391F2E5F3F4F27
:1005800017C0CA0181709070892B61F0169507958C
:10059000F794E79480E090E0A0E0B0E8E82AF92A38
:1005A0000A2B1B2B76956795579547952F5F3F4FE5
:1005B00077FDE7CF0CC0440F551F661F771F17FD4F
:1005C0004160EE0CFF1C001F111F215030404030D5
:1005D00090E0590790E0690790E4790760F32B8F6A
:1005E0003C8FDB01CA018F779070A070B0708034AF
:1005F0009105A105B10561F447FD0AC0E114F104BC
:100600000105110529F0405C5F4F6F4F7F4F407827
:100610001A8EFE1711F081E08A8F4D8F5E8F6F8FDB
:1006200078A383E0898FCE0149960E94FF03A096AC
:10063000E2E10C94400CA8E1B0E0E1E2F3E00C94BC
:10064000300C69837A838B839C832D833E834F8315
:10065000588789E0E82EF12CEC0EFD1ECE010196A4
:10066000B7010E94D4048E010F5E1F4FCE01059684
:10067000B8010E94D4048985823040F08989823093
:1006800028F0C701B8010E944C0501C08FEF6896A1
:10069000E6E00C944C0CA8E1B0E0E1E5F3E00C944A
:1006A000300C69837A838B839C832D833E834F83B5
:1006B000588789E0E82EF12CEC0EFD1ECE01019644
:1006C000B7010E94D4048E010F5E1F4FCE01059624
:1006D000B8010E94D4048985823040F08989823033
:1006E00028F0C701B8010E944C0501C08FEF689641
:1006F000E6E00C944C0CA8E1B0E0E1E8F3E00C94E7
:10070000300C69837A838B839C832D833E834F8354
:10071000588789E0E82EF12CEC0EFD1ECE010196E3
:10072000B7010E94D4048E010F5E1F4FCE010596C3
:10073000B8010E94D4048985823040F089898230D2
:1007400028F0C701B8010E944C0501C081E06896FD
:10075000E6E00C944C0CACE0B0E0E1EBF3E00C9480
:10076000340C69837A838B839C83CE010196BE010E
:100770006B5F7F4F0E94D4048D81823061F18230A3
:1007800050F1843021F48E81882351F12EC02F81C5
:10079000388537FD20C06E812F3131051CF066236E
:1007A000F9F023C08EE190E0821B930B29853A85F6
:1007B0004B855C8504C056954795379527958A9556
:1007C000D2F76623B1F050954095309521953F4F73
:1007D0004F4F5F4F0EC020E030E040E050E009C0D6
:1007E0002FEF3FEF4FEF5FE704C020E030E040E045
:1007F00050E8B901CA012C96E2E00C94500CDF924B
:10080000EF92FF920F931F93FC01E480F580068125
:100810001781D1808081823048F480E090E0A0E1AF
:10082000B0E0E82AF92A0A2B1B2BA5C0843009F472
:100830009FC0823021F4EE24FF24870105C0E1141B
:10084000F1040105110519F4E0E0F0E096C06281C1
:1008500073819FEF623879070CF05BC022E83FEFAD
:10086000261B370B2A3131052CF020E030E040E028
:1008700050E02AC0B801A701022E04C07695679502
:10088000579547950A94D2F781E090E0A0E0B0E058
:1008900004C0880F991FAA1FBB1F2A95D2F7019782
:1008A000A109B1098E219F21A023B1230097A105A1
:1008B000B10521F081E090E0A0E0B0E09A01AB0149
:1008C000282B392B4A2B5B2BDA01C9018F779070CB
:1008D000A070B07080349105A105B10539F427FFEF
:1008E00009C0205C3F4F4F4F5F4F04C0215C3F4F1A
:1008F0004F4F5F4FE0E0F0E02030A0E03A07A0E08B
:100900004A07A0E45A0710F0E1E0F0E079018A011B
:1009100027C06038710564F5FB01E158FF4FD8012D
:10092000C7018F779070A070B07080349105A105D9
:10093000B10539F4E7FE0DC080E490E0A0E0B0E03E
:1009400004C08FE390E0A0E0B0E0E80EF91E0A1FBB
:100950001B1F17FF05C016950795F794E79431966E
:1009600087E016950795F794E7948A95D1F705C027
:10097000EE24FF248701EFEFF0E06E2F67956627E6
:100980006795902F9F77D794DD24D7948E2F8695E7
:10099000492F462B582F5D29B701CA011F910F918E
:1009A000FF90EF90DF900895FC01DB0140815181C1
:1009B0002281622F6F7770E0221F2227221F9381EE
:1009C000892F880F822B282F30E0991F9927991F94
:1009D00011969C93119721153105A9F541155105E3
:1009E0006105710511F482E037C082E89FEF13962C
:1009F0009C938E9312979A01AB0167E0220F331FED
:100A0000441F551F6A95D1F783E08C930DC0220FC8
:100A1000331F441F551F12968D919C911397019778
:100A200013969C938E931297203080E0380780E0D5
:100A3000480780E4580758F314962D933D934D933F
:100A40005C93179708952F3F310579F441155105AF
:100A50006105710519F484E08C93089564FF03C067
:100A600081E08C9312C01C9210C02F573040139617
:100A70003C932E93129783E08C9387E0440F551F8D
:100A8000661F771F8A95D1F7706414964D935D9316
:100A90006D937C93179708951F93DC01FB019C9144
:100AA000923008F447C08081823008F443C094300B
:100AB00051F411961C91843099F58181682F70E072
:100AC000611B71093FC0843021F0923031F48230D3
:100AD000B9F18181882389F12DC011961C9111975C
:100AE0008230F1F081811817D9F412962D913C9142
:100AF0001397828193818217930794F028173907FF
:100B0000BCF014968D919D910D90BC91A02D2481E7
:100B1000358146815781281739074A075B0718F442
:100B2000112341F00AC082179307A407B50740F4C8
:100B3000112319F061E070E005C06FEF7FEF02C094
:100B400060E070E0CB011F910895DF93CF93CDB7A4
:100B5000DEB72F970FB6F894DEBF0FBECDBF8F87DD
:100B600083E460E040E00E94FB0783E461E040E052
:100B70000E94FB0784E46F850E94CE0883E462E054
:100B800041E00E94FB0780E090E0A0E4B0E48B87A6
:100B90009C87AD87BE876B857C858D859E8520E093
:100BA00030E04AEF54E40E942102DC01CB018F8344
:100BB0009887A987BA876F81788589859A8520E08B
:100BC00030E040E85FE30E947B0388232CF481E05F
:100BD00090E09E838D833FC06F81788589859A855B
:100BE00020E03FEF4FE757E40E941B0318164CF537
:100BF0006B857C858D859E8520E030E040E251E468
:100C00000E942102DC01CB01BC01CD010E944B00FE
:100C1000DC01CB019E838D830FC088EC90E09C8328
:100C20008B838B819C810197F1F79C838B838D81D2
:100C30009E8101979E838D838D819E81009769F7A8
:100C400014C06F81788589859A850E944B00DC01EC
:100C5000CB019E838D838D819E819A838983898137
:100C60009A810197F1F79A83898383E462E040E0F7
:100C70000E94FB072F960FB6F894DEBF0FBECDBFC4
:100C8000CF91DF910895DF93CF93CDB7DEB72F9744
:100C90000FB6F894DEBF0FBECDBF8F8783E460E050
:100CA00041E00E94FB0783E461E040E00E94FB0713
:100CB00084E46F850E94CE0883E462E041E00E94F4
:100CC000FB0780E090E0A0E4B0E48B879C87AD87D1
:100CD000BE876B857C858D859E8520E030E04AEF60
:100CE00054E40E942102DC01CB018F839887A987FD
:100CF000BA876F81788589859A8520E030E040E861
:100D00005FE30E947B0388232CF481E090E09E83C4
:100D10008D833FC06F81788589859A8520E03FEF7C
:100D20004FE757E40E941B0318164CF56B857C8532
:100D30008D859E8520E030E040E251E40E94210252
:100D4000DC01CB01BC01CD010E944B00DC01CB01D9
:100D50009E838D830FC088EC90E09C838B838B8176
:100D60009C810197F1F79C838B838D819E810197F4
:100D70009E838D838D819E81009769F714C06F815A
:100D8000788589859A850E944B00DC01CB019E8382
:100D90008D838D819E819A83898389819A81019730
:100DA000F1F79A83898383E462E040E00E94FB07C5
:100DB0002F960FB6F894DEBF0FBECDBFCF91DF9157
:100DC0000895DF93CF93CDB7DEB72E970FB6F89483
:100DD000DEBF0FBECDBF80E090E0ACE0B2E48B8719
:100DE0009C87AD87BE876B857C858D859E8520E041
:100DF00030E04AEF54E40E942102DC01CB018F83F2
:100E00009887A987BA876F81788589859A8520E038
:100E100030E040E85FE30E947B0388232CF481E00C
:100E200090E09E838D833FC06F81788589859A8508
:100E300020E03FEF4FE757E40E941B0318164CF5E4
:100E40006B857C858D859E8520E030E040E251E415
:100E50000E942102DC01CB01BC01CD010E944B00AC
:100E6000DC01CB019E838D830FC088EC90E09C83D6
:100E70008B838B819C810197F1F79C838B838D8180
:100E80009E8101979E838D838D819E81009769F756
:100E900014C06F81788589859A850E944B00DC019A
:100EA000CB019E838D838D819E819A8389838981E5
:100EB0009A810197F1F79A83898388E30E94A505B7
:100EC0008CE00E94A50581E00E94A5052E960FB634
:100ED000F894DEBF0FBECDBFCF91DF910895DF93B1
:100EE000CF9300D00F92CDB7DEB79B838A83198250
:100EF00010C08981282F332727FD30958A819B8157
:100F0000FC01E20FF31F80810E94430689818F5FFD
:100F100089838981282F332727FD30958A819B81FA
:100F2000FC01E20FF31F8081882319F70F900F90C7
:100F30000F90CF91DF910895DF93CF9300D00F9260
:100F4000CDB7DEB78A836B838A81882319F48B81BE
:100F5000898306C08A81813019F48B81805C898302
:100F6000898180580E94A5050F900F900F90CF9116
:100F7000DF910895DF93CF93CDB7DEB727970FB6F4
:100F8000F894DEBF0FBECDBF9C838B836D834E83F1
:100F90002F831A828D81882F90E0880F991F880FE8
:100FA000991F880F991F8A838A81805C0E94A505FA
:100FB00019820EC08981282F30E08B819C81FC0131
:100FC000E20FF31F80810E94430689818F5F89832E
:100FD0008981883078F38E816F810E949C078D8192
:100FE0000E94430627960FB6F894DEBF0FBECDBF12
:100FF000CF91DF910895DF93CF93CDB7DEB72897D8
:101000000FB6F894DEBF0FBECDBF8A836B834C83CF
:1010100019828B81883008F0B5C08C81813009F04D
:1010200053C08A81282F30E038872F838F8198859D
:1010300083349105F1F02F8138852434310569F12D
:101040008F81988582349105E1F5A5E2B0E0E5E273
:10105000F0E08081482F8B81282F30E081E090E004
:10106000022E02C0880F991F0A94E2F7842B8C93FA
:101070008BC0A8E2B0E0E8E2F0E08081482F8B81ED
:10108000282F30E081E090E0022E02C0880F991FE7
:101090000A94E2F7842B8C9377C0ABE2B0E0EBE2EA
:1010A000F0E08081482F8B81282F30E081E090E0B4
:1010B000022E02C0880F991F0A94E2F7842B8C93AA
:1010C00063C081E0898360C08C81882309F057C0A8
:1010D0008A81282F30E03E832D838D819E81833449
:1010E000910501F12D813E812434310581F18D81FD
:1010F0009E818234910509F03FC0A5E2B0E0E5E2AF
:10110000F0E08081482F8B81282F30E081E090E053
:10111000022E02C0880F991F0A94E2F7809584235B
:101120008C9332C0A8E2B0E0E8E2F0E08081482F82
:101130008B81282F30E081E090E0022E02C0880FE2
:10114000991F0A94E2F7809584238C931DC0ABE22B
:10115000B0E0EBE2F0E08081482F8B81282F30E077
:1011600081E090E0022E02C0880F991F0A94E2F7F6
:10117000809584238C9308C081E0898305C081E039
:10118000898302C081E08983898128960FB6F8940B
:10119000DEBF0FBECDBFCF91DF910895DF93CF9318
:1011A00000D000D00F92CDB7DEB78A836B8319824F
:1011B0008A81282F30E03D832C838C819D8183346C
:1011C000910579F02C813D812434310579F08C81B1
:1011D0009D818234910579F4E5E2F0E08B81808392
:1011E0000CC0E8E2F0E08B81808307C0EBE2F0E026
:1011F0008B81808302C081E0898389810F900F9069
:101200000F900F900F90CF91DF910895DF93CF93C0
:10121000CDB7DEB727970FB6F894DEBF0FBECDBFB0
:101220008A836B835D834C8319828C819D810097B7
:1012300009F458C08B81883008F054C08A81282F67
:1012400030E03F832E834E815F8143345105F9F0B6
:101250008E819F818434910571F12E813F812234EA
:10126000310509F03CC0E3E2F0E08081282F30E056
:101270008B81882F90E0A90102C0559547958A95EA
:10128000E2F7CA018170EC81FD8180832DC0E6E226
:10129000F0E08081282F30E08B81882F90E0A90139
:1012A00002C0559547958A95E2F7CA018170EC8195
:1012B000FD81808319C0E9E2F0E08081282F30E0D1
:1012C0008B81882F90E0A90102C0559547958A959A
:1012D000E2F7CA018170EC81FD81808305C081E065
:1012E000898302C081E08983898127960FB6F894AB
:1012F000DEBF0FBECDBFCF91DF910895DF93CF93B7
:10130000CDB7DEB7E4E2F0E01082E7E2F0E087E09C
:101310008083EAE2F0E08FEF8083E5E2F0E0108284
:10132000E8E2F0E01082EBE2F0E01082CF91DF9192
:101330000895DF93CF93CDB7DEB7C655D0400FB633
:10134000F894DEBF0FBECDBF0E947E090E94E10669
:1013500088E0FE01BD96DF01282F1D922A95E9F74E
:1013600084E08EA78EE088AB8AE089AB8EE18AAB01
:1013700088E0FE01F596DF01282F1D922A95E9F7F6
:1013800084E08EAB84E08FAB84E088AF84E089AFEB
:1013900087E08AAF88E0FE01FD96DF01282F1D92CD
:1013A0002A95E9F782E08FAF82E0FE01E05CFF4F13
:1013B0008083FE01EF5BFF4F82E08083FE01EE5BE6
:1013C000FF4F84E08083FE01ED5BFF4F88E0808368
:1013D000CE018B5B9F4F28E0FC01DF01322F1D9275
:1013E0003A95E9F7FE01EB5BFF4F85E18383FE0150
:1013F000EB5BFF4F8FE18483FE01EB5BFF4F80E1EE
:101400008583CE01835B9F4F28E0FC01DF01322FF3
:101410001D923A95E9F7FE01E35BFF4F88E0838375
:10142000FE01E35BFF4F88E08483FE01E35BFF4F37
:101430008FE085831CA61BA61BA65EC10E94E10649
:101440008CA5A82FB0E06796BFAFAEAF6797679641
:101450002EAD3FAD67972115310549F067968EADEA
:101460009FAD67978130910509F4A3C042C18BA558
:10147000282F2C5FCE018D9660E04CA50E94BA0704
:101480008BA5282F2D5FCE01C59661E04CA50E944B
:10149000BA078BA5282F2E5FCE01CD9662E04CA512
:1014A0000E94BA078BA5282F2F5FCE018B5B9F4F21
:1014B00063E04CA50E94BA07CE01835B9F4F64E0B6
:1014C0004CA52BA50E94BA0780E090E0AFE2B4E4FF
:1014D0008FA398A7A9A7BAA76FA178A589A59AA550
:1014E00020E030E04AEF54E40E942102DC01CB010D
:1014F0008BA39CA3ADA3BEA36BA17CA18DA19EA138
:1015000020E030E040E85FE30E947B0388232CF476
:1015100081E090E09AA389A33FC06BA17CA18DA13B
:101520009EA120E03FEF4FE757E40E941B031816EF
:101530004CF56FA178A589A59AA520E030E040E29E
:1015400051E40E942102DC01CB01BC01CD010E94CB
:101550004B00DC01CB019AA389A30FC088EC90E07B
:1015600098A38F8F8F8D98A10197F1F798A38F8FF4
:1015700089A19AA101979AA389A389A19AA1009709
:1015800069F714C06BA17CA18DA19EA10E944B00A4
:10159000DC01CB019AA389A389A19AA19E8F8D8F8B
:1015A0008D8D9E8D0197F1F79E8F8D8F81E08CA799
:1015B000A0C08BA5282F2C5FCE018D9660E04CA596
:1015C0000E94BA078BA5282F2D5FCE01C59661E03A
:1015D0004CA50E94BA078BA5282F2E5FCE01CD9671
:1015E00062E04CA50E94BA078BA5282F2F5FCE0181
:1015F0008B5B9F4F63E04CA50E94BA07CE01835BD3
:101600009F4F64E04CA52BA50E94BA0780E090E0B4
:10161000AFE2B4E4898F9A8FAB8FBC8F698D7A8DDE
:101620008B8D9C8D20E030E04AEF54E40E94210233
:10163000DC01CB018D8B9E8BAF8BB88F6D897E8942
:101640008F89988D20E030E040E85FE30E947B03C3
:1016500088232CF481E090E09C8B8B8B3FC06D89BC
:101660007E898F89988D20E03FEF4FE757E40E94F5
:101670001B0318164CF5698D7A8D8B8D9C8D20E09F
:1016800030E040E251E40E942102DC01CB01BC01C8
:10169000CD010E944B00DC01CB019C8B8B8B0FC0DA
:1016A00088EC90E09A8B898B89899A890197F1F768
:1016B0009A8B898B8B899C8901979C8B8B8B8B89CF
:1016C0009C89009769F714C06D897E898F89988DF0
:1016D0000E944B00DC01CB019C8B8B8B8B899C89FE
:1016E000988B8F878F8598890197F1F7988B8F87D3
:1016F0001CA68BA58B5F8BA78BA58B3008F49ECE89
:101700000E94E1068BA5282F2A50CE01835B9F4FB4
:1017100060E04CA50E94BA078BA5282F2950CE0166
:101720008B5B9F4F61E04CA50E94BA078BA5282FC9
:101730002850CE01CD9662E04CA50E94BA078BA539
:10174000282F2750CE01C59663E04CA50E94BA070A
:101750008BA5282F2650CE018D9664E04CA50E94C3
:10176000BA0780E090E0AFE2B4E48B879C87AD8756
:10177000BE876B857C858D859E8520E030E04AEFB5
:1017800054E40E942102DC01CB018F839887A98752
:10179000BA876F81788589859A8520E030E040E8B6
:1017A0005FE30E947B0388232CF481E090E09E831A
:1017B0008D833FC06F81788589859A8520E03FEFD2
:1017C0004FE757E40E941B0318164CF56B857C8588
:1017D0008D859E8520E030E040E251E40E942102A8
:1017E000DC01CB01BC01CD010E944B00DC01CB012F
:1017F0009E838D830FC088EC90E09C838B838B81CC
:101800009C810197F1F79C838B838D819E81019749
:101810009E838D838D819E81009769F70BCE6F81AA
:10182000788589859A850E944B00DC01CB019E83D7
:101830008D838D819E819A83898389819A81019785
:10184000F1F79A838983F6CD2F923F924F925F9260
:101850006F927F928F929F92AF92BF92CF92DF92C0
:10186000EF92FF920F931F93CF93DF93CDB7DEB725
:10187000CA1BDB0B0FB6F894DEBF0FBECDBF0994B9
:101880002A88398848885F846E847D848C849B8410
:10189000AA84B984C884DF80EE80FD800C811B811E
:1018A000AA81B981CE0FD11D0FB6F894DEBF0FBE4D
:0A18B000CDBFED010895F894FFCFBD
:0818BA00000000000000000026
:00000001FF
